{
	"data": {
		"bytecode": {
			"linkReferences": {},
			"object": "608060405234801561001057600080fd5b5061127f806100206000396000f3fe608060405234801561001057600080fd5b506004361061004c5760003560e01c80631b2e0716146100515780635c320a72146100f757806368d134c31461010c578063bf9e4ef31461012d575b600080fd5b6100b261005f366004610d6a565b6000602081815292815260408082209093529081522060088101546009820154600a830154600b909301546001600160a01b03928316939282169260ff600160a01b8404811693600160a81b9004169186565b604080516001600160a01b0397881681529690951660208701529215159385019390935215156060840152608083019190915260a082015260c0015b60405180910390f35b61010a610105366004610da3565b610140565b005b61011f61011a366004610f89565b610806565b6040519081526020016100ee565b61010a61013b3660046110e5565b610b66565b6001600160a01b03821660009081526020818152604080832033845290915290206009810154600160a81b900460ff16156101c25760405162461bcd60e51b815260206004820152601e60248201527f5472616e73616374696f6e20616c726561647920636f6d706c657465642e000060448201526064015b60405180910390fd5b80600a015482146102295760405162461bcd60e51b815260206004820152602b60248201527f5472616e73616374696f6e20697320646966666572656e742066726f6d20746860448201526a3290383937b837b9b2b21760a91b60648201526084016101b9565b60098101546001600160a01b031633146102ab5760405162461bcd60e51b815260206004820152603a60248201527f4f6e6c792070617274792042206f6620746865207472616e73616374696f6e2060448201527f63616e20636f6d706c657465207468652065786368616e67652e00000000000060648201526084016101b9565b6009810154600160a01b900460ff166103125760405162461bcd60e51b8152602060048201526024808201527f5472616e73616374696f6e20686173206265656e206e756c6c696669656420626044820152633c90209760e11b60648201526084016101b9565b80600b015442106103655760405162461bcd60e51b815260206004820152601860248201527f506173736564207472616e73616374696f6e2074696d652e000000000000000060448201526064016101b9565b60005b81548110156104485781600001818154811061038657610386611109565b9060005260206000200160009054906101000a90046001600160a01b03166001600160a01b03166323b872dd85338560010185815481106103c9576103c9611109565b90600052602060002001546040518463ffffffff1660e01b81526004016103f29392919061111f565b6020604051808303816000875af1158015610411573d6000803e3d6000fd5b505050506040513d601f19601f820116820180604052508101906104359190611143565b508061044081611165565b915050610368565b5060005b60028201548110156105a75760005b60038301548110156105945782600301828154811061047c5761047c611109565b90600052602060002001818154811061049757610497611109565b90600052602060002001546402540be3ff14156104b357610594565b8260020182815481106104c8576104c8611109565b9060005260206000200160009054906101000a90046001600160a01b03166001600160a01b03166323b872dd863386600301868154811061050b5761050b611109565b90600052602060002001858154811061052657610526611109565b90600052602060002001546040518463ffffffff1660e01b815260040161054f9392919061111f565b600060405180830381600087803b15801561056957600080fd5b505af115801561057d573d6000803e3d6000fd5b50505050808061058c90611165565b91505061045b565b508061059f81611165565b91505061044c565b5060005b600482015481101561068e578160040181815481106105cc576105cc611109565b9060005260206000200160009054906101000a90046001600160a01b03166001600160a01b03166323b872dd338685600501858154811061060f5761060f611109565b90600052602060002001546040518463ffffffff1660e01b81526004016106389392919061111f565b6020604051808303816000875af1158015610657573d6000803e3d6000fd5b505050506040513d601f19601f8201168201806040525081019061067b9190611143565b508061068681611165565b9150506105ab565b5060005b60068201548110156107ed5760005b60078301548110156107da578260070182815481106106c2576106c2611109565b9060005260206000200181815481106106dd576106dd611109565b90600052602060002001546402540be3ff14156106f9576107da565b82600601828154811061070e5761070e611109565b9060005260206000200160009054906101000a90046001600160a01b03166001600160a01b03166323b872dd338786600701868154811061075157610751611109565b90600052602060002001858154811061076c5761076c611109565b90600052602060002001546040518463ffffffff1660e01b81526004016107959392919061111f565b600060405180830381600087803b1580156107af57600080fd5b505af11580156107c3573d6000803e3d6000fd5b5050505080806107d290611165565b9150506106a1565b50806107e581611165565b915050610692565b50600901805460ff60a81b1916600160a81b1790555050565b60006001600160a01b0383163314156108615760405162461bcd60e51b815260206004820152601a60248201527f63616e6e6f74207472616e7361637420776974682073656c662e00000000000060448201526064016101b9565b89518b51146108cc5760405162461bcd60e51b815260206004820152603160248201527f4c656e677468206f6620746f6b656e7320616e6420746f6b656e20616d6f756e6044820152703a39903737ba1032b8bab0b6101420949760791b60648201526084016101b9565b85518751146109375760405162461bcd60e51b815260206004820152603160248201527f4c656e677468206f6620746f6b656e7320616e6420746f6b656e20616d6f756e6044820152703a39903737ba1032b8bab0b6101421149760791b60648201526084016101b9565b60008b8b89893388604051602001610954969594939291906111f2565b60408051601f1981840301815282825280516020918201206101c0840183528f84528382018f90528383018e9052606084018d9052608084018c905260a084018b905260c084018a905260e084018990523361010085018190526001600160a01b038916610120860181905260016101408701526000610160870181905261018087018490526101a087018a9052918252818452848220908252835292909220835180519395509092610a0a9284920190610bf9565b506020828101518051610a239260018501920190610c5e565b5060408201518051610a3f916002840191602090910190610bf9565b5060608201518051610a5b916003840191602090910190610c99565b5060808201518051610a77916004840191602090910190610bf9565b5060a08201518051610a93916005840191602090910190610c5e565b5060c08201518051610aaf916006840191602090910190610bf9565b5060e08201518051610acb916007840191602090910190610c99565b506101008201516008820180546001600160a01b0319166001600160a01b03928316179055610120830151600983018054610140860151610160870151939094166001600160a81b031990911617600160a01b931515939093029290921760ff60a81b1916600160a81b91151591909102179055610180820151600a8201556101a090910151600b909101559b9a5050505050505050505050565b336000818152602081815260408083206001600160a01b038681168552925290912060088101549092911614610be85760405162461bcd60e51b815260206004820152602160248201527f4e6f7420617574686f72697a656420746f2063616e63656c20284e6f742041296044820152601760f91b60648201526084016101b9565b600901805460ff60a01b1916905550565b828054828255906000526020600020908101928215610c4e579160200282015b82811115610c4e57825182546001600160a01b0319166001600160a01b03909116178255602090920191600190910190610c19565b50610c5a929150610cf2565b5090565b828054828255906000526020600020908101928215610c4e579160200282015b82811115610c4e578251825591602001919060010190610c7e565b828054828255906000526020600020908101928215610ce6579160200282015b82811115610ce65782518051610cd6918491602090910190610c5e565b5091602001919060010190610cb9565b50610c5a929150610d07565b5b80821115610c5a5760008155600101610cf3565b80821115610c5a576000610d1b8282610d24565b50600101610d07565b5080546000825590600052602060002090810190610d429190610cf2565b50565b6001600160a01b0381168114610d4257600080fd5b8035610d6581610d45565b919050565b60008060408385031215610d7d57600080fd5b8235610d8881610d45565b91506020830135610d9881610d45565b809150509250929050565b60008060408385031215610db657600080fd5b8235610dc181610d45565b946020939093013593505050565b634e487b7160e01b600052604160045260246000fd5b604051601f8201601f1916810167ffffffffffffffff81118282101715610e0e57610e0e610dcf565b604052919050565b600067ffffffffffffffff821115610e3057610e30610dcf565b5060051b60200190565b600082601f830112610e4b57600080fd5b81356020610e60610e5b83610e16565b610de5565b82815260059290921b84018101918181019086841115610e7f57600080fd5b8286015b84811015610ea3578035610e9681610d45565b8352918301918301610e83565b509695505050505050565b600082601f830112610ebf57600080fd5b81356020610ecf610e5b83610e16565b82815260059290921b84018101918181019086841115610eee57600080fd5b8286015b84811015610ea35780358352918301918301610ef2565b600082601f830112610f1a57600080fd5b81356020610f2a610e5b83610e16565b82815260059290921b84018101918181019086841115610f4957600080fd5b8286015b84811015610ea357803567ffffffffffffffff811115610f6d5760008081fd5b610f7b8986838b0101610eae565b845250918301918301610f4d565b6000806000806000806000806000806101408b8d031215610fa957600080fd5b8a3567ffffffffffffffff80821115610fc157600080fd5b610fcd8e838f01610e3a565b9b5060208d0135915080821115610fe357600080fd5b610fef8e838f01610eae565b9a5060408d013591508082111561100557600080fd5b6110118e838f01610e3a565b995060608d013591508082111561102757600080fd5b6110338e838f01610f09565b985060808d013591508082111561104957600080fd5b6110558e838f01610e3a565b975060a08d013591508082111561106b57600080fd5b6110778e838f01610eae565b965060c08d013591508082111561108d57600080fd5b6110998e838f01610e3a565b955060e08d01359150808211156110af57600080fd5b506110bc8d828e01610f09565b9350506110cc6101008c01610d5a565b91506101208b013590509295989b9194979a5092959850565b6000602082840312156110f757600080fd5b813561110281610d45565b9392505050565b634e487b7160e01b600052603260045260246000fd5b6001600160a01b039384168152919092166020820152604081019190915260600190565b60006020828403121561115557600080fd5b8151801515811461110257600080fd5b600060001982141561118757634e487b7160e01b600052601160045260246000fd5b5060010190565b60008151602080840160005b838110156111bf5781516001600160a01b03168752958201959082019060010161119a565b509495945050505050565b60008151602080840160005b838110156111bf578151875295820195908201906001016111d6565b600061121961121361120d611207858c61118e565b8a6111ca565b8861118e565b866111ca565b6bffffffffffffffffffffffff19606095861b811682529390941b9092166014840152505060280194935050505056fea2646970667358221220db348b14b0ce862adf4eb8072cc69940e50d02b8f0cce35c4f0c4a082a47ee8a64736f6c634300080b0033",
			"opcodes": "PUSH1 0x80 PUSH1 0x40 MSTORE CALLVALUE DUP1 ISZERO PUSH2 0x10 JUMPI PUSH1 0x0 DUP1 REVERT JUMPDEST POP PUSH2 0x127F DUP1 PUSH2 0x20 PUSH1 0x0 CODECOPY PUSH1 0x0 RETURN INVALID PUSH1 0x80 PUSH1 0x40 MSTORE CALLVALUE DUP1 ISZERO PUSH2 0x10 JUMPI PUSH1 0x0 DUP1 REVERT JUMPDEST POP PUSH1 0x4 CALLDATASIZE LT PUSH2 0x4C JUMPI PUSH1 0x0 CALLDATALOAD PUSH1 0xE0 SHR DUP1 PUSH4 0x1B2E0716 EQ PUSH2 0x51 JUMPI DUP1 PUSH4 0x5C320A72 EQ PUSH2 0xF7 JUMPI DUP1 PUSH4 0x68D134C3 EQ PUSH2 0x10C JUMPI DUP1 PUSH4 0xBF9E4EF3 EQ PUSH2 0x12D JUMPI JUMPDEST PUSH1 0x0 DUP1 REVERT JUMPDEST PUSH2 0xB2 PUSH2 0x5F CALLDATASIZE PUSH1 0x4 PUSH2 0xD6A JUMP JUMPDEST PUSH1 0x0 PUSH1 0x20 DUP2 DUP2 MSTORE SWAP3 DUP2 MSTORE PUSH1 0x40 DUP1 DUP3 KECCAK256 SWAP1 SWAP4 MSTORE SWAP1 DUP2 MSTORE KECCAK256 PUSH1 0x8 DUP2 ADD SLOAD PUSH1 0x9 DUP3 ADD SLOAD PUSH1 0xA DUP4 ADD SLOAD PUSH1 0xB SWAP1 SWAP4 ADD SLOAD PUSH1 0x1 PUSH1 0x1 PUSH1 0xA0 SHL SUB SWAP3 DUP4 AND SWAP4 SWAP3 DUP3 AND SWAP3 PUSH1 0xFF PUSH1 0x1 PUSH1 0xA0 SHL DUP5 DIV DUP2 AND SWAP4 PUSH1 0x1 PUSH1 0xA8 SHL SWAP1 DIV AND SWAP2 DUP7 JUMP JUMPDEST PUSH1 0x40 DUP1 MLOAD PUSH1 0x1 PUSH1 0x1 PUSH1 0xA0 SHL SUB SWAP8 DUP9 AND DUP2 MSTORE SWAP7 SWAP1 SWAP6 AND PUSH1 0x20 DUP8 ADD MSTORE SWAP3 ISZERO ISZERO SWAP4 DUP6 ADD SWAP4 SWAP1 SWAP4 MSTORE ISZERO ISZERO PUSH1 0x60 DUP5 ADD MSTORE PUSH1 0x80 DUP4 ADD SWAP2 SWAP1 SWAP2 MSTORE PUSH1 0xA0 DUP3 ADD MSTORE PUSH1 0xC0 ADD JUMPDEST PUSH1 0x40 MLOAD DUP1 SWAP2 SUB SWAP1 RETURN JUMPDEST PUSH2 0x10A PUSH2 0x105 CALLDATASIZE PUSH1 0x4 PUSH2 0xDA3 JUMP JUMPDEST PUSH2 0x140 JUMP JUMPDEST STOP JUMPDEST PUSH2 0x11F PUSH2 0x11A CALLDATASIZE PUSH1 0x4 PUSH2 0xF89 JUMP JUMPDEST PUSH2 0x806 JUMP JUMPDEST PUSH1 0x40 MLOAD SWAP1 DUP2 MSTORE PUSH1 0x20 ADD PUSH2 0xEE JUMP JUMPDEST PUSH2 0x10A PUSH2 0x13B CALLDATASIZE PUSH1 0x4 PUSH2 0x10E5 JUMP JUMPDEST PUSH2 0xB66 JUMP JUMPDEST PUSH1 0x1 PUSH1 0x1 PUSH1 0xA0 SHL SUB DUP3 AND PUSH1 0x0 SWAP1 DUP2 MSTORE PUSH1 0x20 DUP2 DUP2 MSTORE PUSH1 0x40 DUP1 DUP4 KECCAK256 CALLER DUP5 MSTORE SWAP1 SWAP2 MSTORE SWAP1 KECCAK256 PUSH1 0x9 DUP2 ADD SLOAD PUSH1 0x1 PUSH1 0xA8 SHL SWAP1 DIV PUSH1 0xFF AND ISZERO PUSH2 0x1C2 JUMPI PUSH1 0x40 MLOAD PUSH3 0x461BCD PUSH1 0xE5 SHL DUP2 MSTORE PUSH1 0x20 PUSH1 0x4 DUP3 ADD MSTORE PUSH1 0x1E PUSH1 0x24 DUP3 ADD MSTORE PUSH32 0x5472616E73616374696F6E20616C726561647920636F6D706C657465642E0000 PUSH1 0x44 DUP3 ADD MSTORE PUSH1 0x64 ADD JUMPDEST PUSH1 0x40 MLOAD DUP1 SWAP2 SUB SWAP1 REVERT JUMPDEST DUP1 PUSH1 0xA ADD SLOAD DUP3 EQ PUSH2 0x229 JUMPI PUSH1 0x40 MLOAD PUSH3 0x461BCD PUSH1 0xE5 SHL DUP2 MSTORE PUSH1 0x20 PUSH1 0x4 DUP3 ADD MSTORE PUSH1 0x2B PUSH1 0x24 DUP3 ADD MSTORE PUSH32 0x5472616E73616374696F6E20697320646966666572656E742066726F6D207468 PUSH1 0x44 DUP3 ADD MSTORE PUSH11 0x3290383937B837B9B2B217 PUSH1 0xA9 SHL PUSH1 0x64 DUP3 ADD MSTORE PUSH1 0x84 ADD PUSH2 0x1B9 JUMP JUMPDEST PUSH1 0x9 DUP2 ADD SLOAD PUSH1 0x1 PUSH1 0x1 PUSH1 0xA0 SHL SUB AND CALLER EQ PUSH2 0x2AB JUMPI PUSH1 0x40 MLOAD PUSH3 0x461BCD PUSH1 0xE5 SHL DUP2 MSTORE PUSH1 0x20 PUSH1 0x4 DUP3 ADD MSTORE PUSH1 0x3A PUSH1 0x24 DUP3 ADD MSTORE PUSH32 0x4F6E6C792070617274792042206F6620746865207472616E73616374696F6E20 PUSH1 0x44 DUP3 ADD MSTORE PUSH32 0x63616E20636F6D706C657465207468652065786368616E67652E000000000000 PUSH1 0x64 DUP3 ADD MSTORE PUSH1 0x84 ADD PUSH2 0x1B9 JUMP JUMPDEST PUSH1 0x9 DUP2 ADD SLOAD PUSH1 0x1 PUSH1 0xA0 SHL SWAP1 DIV PUSH1 0xFF AND PUSH2 0x312 JUMPI PUSH1 0x40 MLOAD PUSH3 0x461BCD PUSH1 0xE5 SHL DUP2 MSTORE PUSH1 0x20 PUSH1 0x4 DUP3 ADD MSTORE PUSH1 0x24 DUP1 DUP3 ADD MSTORE PUSH32 0x5472616E73616374696F6E20686173206265656E206E756C6C69666965642062 PUSH1 0x44 DUP3 ADD MSTORE PUSH4 0x3C902097 PUSH1 0xE1 SHL PUSH1 0x64 DUP3 ADD MSTORE PUSH1 0x84 ADD PUSH2 0x1B9 JUMP JUMPDEST DUP1 PUSH1 0xB ADD SLOAD TIMESTAMP LT PUSH2 0x365 JUMPI PUSH1 0x40 MLOAD PUSH3 0x461BCD PUSH1 0xE5 SHL DUP2 MSTORE PUSH1 0x20 PUSH1 0x4 DUP3 ADD MSTORE PUSH1 0x18 PUSH1 0x24 DUP3 ADD MSTORE PUSH32 0x506173736564207472616E73616374696F6E2074696D652E0000000000000000 PUSH1 0x44 DUP3 ADD MSTORE PUSH1 0x64 ADD PUSH2 0x1B9 JUMP JUMPDEST PUSH1 0x0 JUMPDEST DUP2 SLOAD DUP2 LT ISZERO PUSH2 0x448 JUMPI DUP2 PUSH1 0x0 ADD DUP2 DUP2 SLOAD DUP2 LT PUSH2 0x386 JUMPI PUSH2 0x386 PUSH2 0x1109 JUMP JUMPDEST SWAP1 PUSH1 0x0 MSTORE PUSH1 0x20 PUSH1 0x0 KECCAK256 ADD PUSH1 0x0 SWAP1 SLOAD SWAP1 PUSH2 0x100 EXP SWAP1 DIV PUSH1 0x1 PUSH1 0x1 PUSH1 0xA0 SHL SUB AND PUSH1 0x1 PUSH1 0x1 PUSH1 0xA0 SHL SUB AND PUSH4 0x23B872DD DUP6 CALLER DUP6 PUSH1 0x1 ADD DUP6 DUP2 SLOAD DUP2 LT PUSH2 0x3C9 JUMPI PUSH2 0x3C9 PUSH2 0x1109 JUMP JUMPDEST SWAP1 PUSH1 0x0 MSTORE PUSH1 0x20 PUSH1 0x0 KECCAK256 ADD SLOAD PUSH1 0x40 MLOAD DUP5 PUSH4 0xFFFFFFFF AND PUSH1 0xE0 SHL DUP2 MSTORE PUSH1 0x4 ADD PUSH2 0x3F2 SWAP4 SWAP3 SWAP2 SWAP1 PUSH2 0x111F JUMP JUMPDEST PUSH1 0x20 PUSH1 0x40 MLOAD DUP1 DUP4 SUB DUP2 PUSH1 0x0 DUP8 GAS CALL ISZERO DUP1 ISZERO PUSH2 0x411 JUMPI RETURNDATASIZE PUSH1 0x0 DUP1 RETURNDATACOPY RETURNDATASIZE PUSH1 0x0 REVERT JUMPDEST POP POP POP POP PUSH1 0x40 MLOAD RETURNDATASIZE PUSH1 0x1F NOT PUSH1 0x1F DUP3 ADD AND DUP3 ADD DUP1 PUSH1 0x40 MSTORE POP DUP2 ADD SWAP1 PUSH2 0x435 SWAP2 SWAP1 PUSH2 0x1143 JUMP JUMPDEST POP DUP1 PUSH2 0x440 DUP2 PUSH2 0x1165 JUMP JUMPDEST SWAP2 POP POP PUSH2 0x368 JUMP JUMPDEST POP PUSH1 0x0 JUMPDEST PUSH1 0x2 DUP3 ADD SLOAD DUP2 LT ISZERO PUSH2 0x5A7 JUMPI PUSH1 0x0 JUMPDEST PUSH1 0x3 DUP4 ADD SLOAD DUP2 LT ISZERO PUSH2 0x594 JUMPI DUP3 PUSH1 0x3 ADD DUP3 DUP2 SLOAD DUP2 LT PUSH2 0x47C JUMPI PUSH2 0x47C PUSH2 0x1109 JUMP JUMPDEST SWAP1 PUSH1 0x0 MSTORE PUSH1 0x20 PUSH1 0x0 KECCAK256 ADD DUP2 DUP2 SLOAD DUP2 LT PUSH2 0x497 JUMPI PUSH2 0x497 PUSH2 0x1109 JUMP JUMPDEST SWAP1 PUSH1 0x0 MSTORE PUSH1 0x20 PUSH1 0x0 KECCAK256 ADD SLOAD PUSH5 0x2540BE3FF EQ ISZERO PUSH2 0x4B3 JUMPI PUSH2 0x594 JUMP JUMPDEST DUP3 PUSH1 0x2 ADD DUP3 DUP2 SLOAD DUP2 LT PUSH2 0x4C8 JUMPI PUSH2 0x4C8 PUSH2 0x1109 JUMP JUMPDEST SWAP1 PUSH1 0x0 MSTORE PUSH1 0x20 PUSH1 0x0 KECCAK256 ADD PUSH1 0x0 SWAP1 SLOAD SWAP1 PUSH2 0x100 EXP SWAP1 DIV PUSH1 0x1 PUSH1 0x1 PUSH1 0xA0 SHL SUB AND PUSH1 0x1 PUSH1 0x1 PUSH1 0xA0 SHL SUB AND PUSH4 0x23B872DD DUP7 CALLER DUP7 PUSH1 0x3 ADD DUP7 DUP2 SLOAD DUP2 LT PUSH2 0x50B JUMPI PUSH2 0x50B PUSH2 0x1109 JUMP JUMPDEST SWAP1 PUSH1 0x0 MSTORE PUSH1 0x20 PUSH1 0x0 KECCAK256 ADD DUP6 DUP2 SLOAD DUP2 LT PUSH2 0x526 JUMPI PUSH2 0x526 PUSH2 0x1109 JUMP JUMPDEST SWAP1 PUSH1 0x0 MSTORE PUSH1 0x20 PUSH1 0x0 KECCAK256 ADD SLOAD PUSH1 0x40 MLOAD DUP5 PUSH4 0xFFFFFFFF AND PUSH1 0xE0 SHL DUP2 MSTORE PUSH1 0x4 ADD PUSH2 0x54F SWAP4 SWAP3 SWAP2 SWAP1 PUSH2 0x111F JUMP JUMPDEST PUSH1 0x0 PUSH1 0x40 MLOAD DUP1 DUP4 SUB DUP2 PUSH1 0x0 DUP8 DUP1 EXTCODESIZE ISZERO DUP1 ISZERO PUSH2 0x569 JUMPI PUSH1 0x0 DUP1 REVERT JUMPDEST POP GAS CALL ISZERO DUP1 ISZERO PUSH2 0x57D JUMPI RETURNDATASIZE PUSH1 0x0 DUP1 RETURNDATACOPY RETURNDATASIZE PUSH1 0x0 REVERT JUMPDEST POP POP POP POP DUP1 DUP1 PUSH2 0x58C SWAP1 PUSH2 0x1165 JUMP JUMPDEST SWAP2 POP POP PUSH2 0x45B JUMP JUMPDEST POP DUP1 PUSH2 0x59F DUP2 PUSH2 0x1165 JUMP JUMPDEST SWAP2 POP POP PUSH2 0x44C JUMP JUMPDEST POP PUSH1 0x0 JUMPDEST PUSH1 0x4 DUP3 ADD SLOAD DUP2 LT ISZERO PUSH2 0x68E JUMPI DUP2 PUSH1 0x4 ADD DUP2 DUP2 SLOAD DUP2 LT PUSH2 0x5CC JUMPI PUSH2 0x5CC PUSH2 0x1109 JUMP JUMPDEST SWAP1 PUSH1 0x0 MSTORE PUSH1 0x20 PUSH1 0x0 KECCAK256 ADD PUSH1 0x0 SWAP1 SLOAD SWAP1 PUSH2 0x100 EXP SWAP1 DIV PUSH1 0x1 PUSH1 0x1 PUSH1 0xA0 SHL SUB AND PUSH1 0x1 PUSH1 0x1 PUSH1 0xA0 SHL SUB AND PUSH4 0x23B872DD CALLER DUP7 DUP6 PUSH1 0x5 ADD DUP6 DUP2 SLOAD DUP2 LT PUSH2 0x60F JUMPI PUSH2 0x60F PUSH2 0x1109 JUMP JUMPDEST SWAP1 PUSH1 0x0 MSTORE PUSH1 0x20 PUSH1 0x0 KECCAK256 ADD SLOAD PUSH1 0x40 MLOAD DUP5 PUSH4 0xFFFFFFFF AND PUSH1 0xE0 SHL DUP2 MSTORE PUSH1 0x4 ADD PUSH2 0x638 SWAP4 SWAP3 SWAP2 SWAP1 PUSH2 0x111F JUMP JUMPDEST PUSH1 0x20 PUSH1 0x40 MLOAD DUP1 DUP4 SUB DUP2 PUSH1 0x0 DUP8 GAS CALL ISZERO DUP1 ISZERO PUSH2 0x657 JUMPI RETURNDATASIZE PUSH1 0x0 DUP1 RETURNDATACOPY RETURNDATASIZE PUSH1 0x0 REVERT JUMPDEST POP POP POP POP PUSH1 0x40 MLOAD RETURNDATASIZE PUSH1 0x1F NOT PUSH1 0x1F DUP3 ADD AND DUP3 ADD DUP1 PUSH1 0x40 MSTORE POP DUP2 ADD SWAP1 PUSH2 0x67B SWAP2 SWAP1 PUSH2 0x1143 JUMP JUMPDEST POP DUP1 PUSH2 0x686 DUP2 PUSH2 0x1165 JUMP JUMPDEST SWAP2 POP POP PUSH2 0x5AB JUMP JUMPDEST POP PUSH1 0x0 JUMPDEST PUSH1 0x6 DUP3 ADD SLOAD DUP2 LT ISZERO PUSH2 0x7ED JUMPI PUSH1 0x0 JUMPDEST PUSH1 0x7 DUP4 ADD SLOAD DUP2 LT ISZERO PUSH2 0x7DA JUMPI DUP3 PUSH1 0x7 ADD DUP3 DUP2 SLOAD DUP2 LT PUSH2 0x6C2 JUMPI PUSH2 0x6C2 PUSH2 0x1109 JUMP JUMPDEST SWAP1 PUSH1 0x0 MSTORE PUSH1 0x20 PUSH1 0x0 KECCAK256 ADD DUP2 DUP2 SLOAD DUP2 LT PUSH2 0x6DD JUMPI PUSH2 0x6DD PUSH2 0x1109 JUMP JUMPDEST SWAP1 PUSH1 0x0 MSTORE PUSH1 0x20 PUSH1 0x0 KECCAK256 ADD SLOAD PUSH5 0x2540BE3FF EQ ISZERO PUSH2 0x6F9 JUMPI PUSH2 0x7DA JUMP JUMPDEST DUP3 PUSH1 0x6 ADD DUP3 DUP2 SLOAD DUP2 LT PUSH2 0x70E JUMPI PUSH2 0x70E PUSH2 0x1109 JUMP JUMPDEST SWAP1 PUSH1 0x0 MSTORE PUSH1 0x20 PUSH1 0x0 KECCAK256 ADD PUSH1 0x0 SWAP1 SLOAD SWAP1 PUSH2 0x100 EXP SWAP1 DIV PUSH1 0x1 PUSH1 0x1 PUSH1 0xA0 SHL SUB AND PUSH1 0x1 PUSH1 0x1 PUSH1 0xA0 SHL SUB AND PUSH4 0x23B872DD CALLER DUP8 DUP7 PUSH1 0x7 ADD DUP7 DUP2 SLOAD DUP2 LT PUSH2 0x751 JUMPI PUSH2 0x751 PUSH2 0x1109 JUMP JUMPDEST SWAP1 PUSH1 0x0 MSTORE PUSH1 0x20 PUSH1 0x0 KECCAK256 ADD DUP6 DUP2 SLOAD DUP2 LT PUSH2 0x76C JUMPI PUSH2 0x76C PUSH2 0x1109 JUMP JUMPDEST SWAP1 PUSH1 0x0 MSTORE PUSH1 0x20 PUSH1 0x0 KECCAK256 ADD SLOAD PUSH1 0x40 MLOAD DUP5 PUSH4 0xFFFFFFFF AND PUSH1 0xE0 SHL DUP2 MSTORE PUSH1 0x4 ADD PUSH2 0x795 SWAP4 SWAP3 SWAP2 SWAP1 PUSH2 0x111F JUMP JUMPDEST PUSH1 0x0 PUSH1 0x40 MLOAD DUP1 DUP4 SUB DUP2 PUSH1 0x0 DUP8 DUP1 EXTCODESIZE ISZERO DUP1 ISZERO PUSH2 0x7AF JUMPI PUSH1 0x0 DUP1 REVERT JUMPDEST POP GAS CALL ISZERO DUP1 ISZERO PUSH2 0x7C3 JUMPI RETURNDATASIZE PUSH1 0x0 DUP1 RETURNDATACOPY RETURNDATASIZE PUSH1 0x0 REVERT JUMPDEST POP POP POP POP DUP1 DUP1 PUSH2 0x7D2 SWAP1 PUSH2 0x1165 JUMP JUMPDEST SWAP2 POP POP PUSH2 0x6A1 JUMP JUMPDEST POP DUP1 PUSH2 0x7E5 DUP2 PUSH2 0x1165 JUMP JUMPDEST SWAP2 POP POP PUSH2 0x692 JUMP JUMPDEST POP PUSH1 0x9 ADD DUP1 SLOAD PUSH1 0xFF PUSH1 0xA8 SHL NOT AND PUSH1 0x1 PUSH1 0xA8 SHL OR SWAP1 SSTORE POP POP JUMP JUMPDEST PUSH1 0x0 PUSH1 0x1 PUSH1 0x1 PUSH1 0xA0 SHL SUB DUP4 AND CALLER EQ ISZERO PUSH2 0x861 JUMPI PUSH1 0x40 MLOAD PUSH3 0x461BCD PUSH1 0xE5 SHL DUP2 MSTORE PUSH1 0x20 PUSH1 0x4 DUP3 ADD MSTORE PUSH1 0x1A PUSH1 0x24 DUP3 ADD MSTORE PUSH32 0x63616E6E6F74207472616E7361637420776974682073656C662E000000000000 PUSH1 0x44 DUP3 ADD MSTORE PUSH1 0x64 ADD PUSH2 0x1B9 JUMP JUMPDEST DUP10 MLOAD DUP12 MLOAD EQ PUSH2 0x8CC JUMPI PUSH1 0x40 MLOAD PUSH3 0x461BCD PUSH1 0xE5 SHL DUP2 MSTORE PUSH1 0x20 PUSH1 0x4 DUP3 ADD MSTORE PUSH1 0x31 PUSH1 0x24 DUP3 ADD MSTORE PUSH32 0x4C656E677468206F6620746F6B656E7320616E6420746F6B656E20616D6F756E PUSH1 0x44 DUP3 ADD MSTORE PUSH17 0x3A39903737BA1032B8BAB0B61014209497 PUSH1 0x79 SHL PUSH1 0x64 DUP3 ADD MSTORE PUSH1 0x84 ADD PUSH2 0x1B9 JUMP JUMPDEST DUP6 MLOAD DUP8 MLOAD EQ PUSH2 0x937 JUMPI PUSH1 0x40 MLOAD PUSH3 0x461BCD PUSH1 0xE5 SHL DUP2 MSTORE PUSH1 0x20 PUSH1 0x4 DUP3 ADD MSTORE PUSH1 0x31 PUSH1 0x24 DUP3 ADD MSTORE PUSH32 0x4C656E677468206F6620746F6B656E7320616E6420746F6B656E20616D6F756E PUSH1 0x44 DUP3 ADD MSTORE PUSH17 0x3A39903737BA1032B8BAB0B61014211497 PUSH1 0x79 SHL PUSH1 0x64 DUP3 ADD MSTORE PUSH1 0x84 ADD PUSH2 0x1B9 JUMP JUMPDEST PUSH1 0x0 DUP12 DUP12 DUP10 DUP10 CALLER DUP9 PUSH1 0x40 MLOAD PUSH1 0x20 ADD PUSH2 0x954 SWAP7 SWAP6 SWAP5 SWAP4 SWAP3 SWAP2 SWAP1 PUSH2 0x11F2 JUMP JUMPDEST PUSH1 0x40 DUP1 MLOAD PUSH1 0x1F NOT DUP2 DUP5 SUB ADD DUP2 MSTORE DUP3 DUP3 MSTORE DUP1 MLOAD PUSH1 0x20 SWAP2 DUP3 ADD KECCAK256 PUSH2 0x1C0 DUP5 ADD DUP4 MSTORE DUP16 DUP5 MSTORE DUP4 DUP3 ADD DUP16 SWAP1 MSTORE DUP4 DUP4 ADD DUP15 SWAP1 MSTORE PUSH1 0x60 DUP5 ADD DUP14 SWAP1 MSTORE PUSH1 0x80 DUP5 ADD DUP13 SWAP1 MSTORE PUSH1 0xA0 DUP5 ADD DUP12 SWAP1 MSTORE PUSH1 0xC0 DUP5 ADD DUP11 SWAP1 MSTORE PUSH1 0xE0 DUP5 ADD DUP10 SWAP1 MSTORE CALLER PUSH2 0x100 DUP6 ADD DUP2 SWAP1 MSTORE PUSH1 0x1 PUSH1 0x1 PUSH1 0xA0 SHL SUB DUP10 AND PUSH2 0x120 DUP7 ADD DUP2 SWAP1 MSTORE PUSH1 0x1 PUSH2 0x140 DUP8 ADD MSTORE PUSH1 0x0 PUSH2 0x160 DUP8 ADD DUP2 SWAP1 MSTORE PUSH2 0x180 DUP8 ADD DUP5 SWAP1 MSTORE PUSH2 0x1A0 DUP8 ADD DUP11 SWAP1 MSTORE SWAP2 DUP3 MSTORE DUP2 DUP5 MSTORE DUP5 DUP3 KECCAK256 SWAP1 DUP3 MSTORE DUP4 MSTORE SWAP3 SWAP1 SWAP3 KECCAK256 DUP4 MLOAD DUP1 MLOAD SWAP4 SWAP6 POP SWAP1 SWAP3 PUSH2 0xA0A SWAP3 DUP5 SWAP3 ADD SWAP1 PUSH2 0xBF9 JUMP JUMPDEST POP PUSH1 0x20 DUP3 DUP2 ADD MLOAD DUP1 MLOAD PUSH2 0xA23 SWAP3 PUSH1 0x1 DUP6 ADD SWAP3 ADD SWAP1 PUSH2 0xC5E JUMP JUMPDEST POP PUSH1 0x40 DUP3 ADD MLOAD DUP1 MLOAD PUSH2 0xA3F SWAP2 PUSH1 0x2 DUP5 ADD SWAP2 PUSH1 0x20 SWAP1 SWAP2 ADD SWAP1 PUSH2 0xBF9 JUMP JUMPDEST POP PUSH1 0x60 DUP3 ADD MLOAD DUP1 MLOAD PUSH2 0xA5B SWAP2 PUSH1 0x3 DUP5 ADD SWAP2 PUSH1 0x20 SWAP1 SWAP2 ADD SWAP1 PUSH2 0xC99 JUMP JUMPDEST POP PUSH1 0x80 DUP3 ADD MLOAD DUP1 MLOAD PUSH2 0xA77 SWAP2 PUSH1 0x4 DUP5 ADD SWAP2 PUSH1 0x20 SWAP1 SWAP2 ADD SWAP1 PUSH2 0xBF9 JUMP JUMPDEST POP PUSH1 0xA0 DUP3 ADD MLOAD DUP1 MLOAD PUSH2 0xA93 SWAP2 PUSH1 0x5 DUP5 ADD SWAP2 PUSH1 0x20 SWAP1 SWAP2 ADD SWAP1 PUSH2 0xC5E JUMP JUMPDEST POP PUSH1 0xC0 DUP3 ADD MLOAD DUP1 MLOAD PUSH2 0xAAF SWAP2 PUSH1 0x6 DUP5 ADD SWAP2 PUSH1 0x20 SWAP1 SWAP2 ADD SWAP1 PUSH2 0xBF9 JUMP JUMPDEST POP PUSH1 0xE0 DUP3 ADD MLOAD DUP1 MLOAD PUSH2 0xACB SWAP2 PUSH1 0x7 DUP5 ADD SWAP2 PUSH1 0x20 SWAP1 SWAP2 ADD SWAP1 PUSH2 0xC99 JUMP JUMPDEST POP PUSH2 0x100 DUP3 ADD MLOAD PUSH1 0x8 DUP3 ADD DUP1 SLOAD PUSH1 0x1 PUSH1 0x1 PUSH1 0xA0 SHL SUB NOT AND PUSH1 0x1 PUSH1 0x1 PUSH1 0xA0 SHL SUB SWAP3 DUP4 AND OR SWAP1 SSTORE PUSH2 0x120 DUP4 ADD MLOAD PUSH1 0x9 DUP4 ADD DUP1 SLOAD PUSH2 0x140 DUP7 ADD MLOAD PUSH2 0x160 DUP8 ADD MLOAD SWAP4 SWAP1 SWAP5 AND PUSH1 0x1 PUSH1 0x1 PUSH1 0xA8 SHL SUB NOT SWAP1 SWAP2 AND OR PUSH1 0x1 PUSH1 0xA0 SHL SWAP4 ISZERO ISZERO SWAP4 SWAP1 SWAP4 MUL SWAP3 SWAP1 SWAP3 OR PUSH1 0xFF PUSH1 0xA8 SHL NOT AND PUSH1 0x1 PUSH1 0xA8 SHL SWAP2 ISZERO ISZERO SWAP2 SWAP1 SWAP2 MUL OR SWAP1 SSTORE PUSH2 0x180 DUP3 ADD MLOAD PUSH1 0xA DUP3 ADD SSTORE PUSH2 0x1A0 SWAP1 SWAP2 ADD MLOAD PUSH1 0xB SWAP1 SWAP2 ADD SSTORE SWAP12 SWAP11 POP POP POP POP POP POP POP POP POP POP POP JUMP JUMPDEST CALLER PUSH1 0x0 DUP2 DUP2 MSTORE PUSH1 0x20 DUP2 DUP2 MSTORE PUSH1 0x40 DUP1 DUP4 KECCAK256 PUSH1 0x1 PUSH1 0x1 PUSH1 0xA0 SHL SUB DUP7 DUP2 AND DUP6 MSTORE SWAP3 MSTORE SWAP1 SWAP2 KECCAK256 PUSH1 0x8 DUP2 ADD SLOAD SWAP1 SWAP3 SWAP2 AND EQ PUSH2 0xBE8 JUMPI PUSH1 0x40 MLOAD PUSH3 0x461BCD PUSH1 0xE5 SHL DUP2 MSTORE PUSH1 0x20 PUSH1 0x4 DUP3 ADD MSTORE PUSH1 0x21 PUSH1 0x24 DUP3 ADD MSTORE PUSH32 0x4E6F7420617574686F72697A656420746F2063616E63656C20284E6F74204129 PUSH1 0x44 DUP3 ADD MSTORE PUSH1 0x17 PUSH1 0xF9 SHL PUSH1 0x64 DUP3 ADD MSTORE PUSH1 0x84 ADD PUSH2 0x1B9 JUMP JUMPDEST PUSH1 0x9 ADD DUP1 SLOAD PUSH1 0xFF PUSH1 0xA0 SHL NOT AND SWAP1 SSTORE POP JUMP JUMPDEST DUP3 DUP1 SLOAD DUP3 DUP3 SSTORE SWAP1 PUSH1 0x0 MSTORE PUSH1 0x20 PUSH1 0x0 KECCAK256 SWAP1 DUP2 ADD SWAP3 DUP3 ISZERO PUSH2 0xC4E JUMPI SWAP2 PUSH1 0x20 MUL DUP3 ADD JUMPDEST DUP3 DUP2 GT ISZERO PUSH2 0xC4E JUMPI DUP3 MLOAD DUP3 SLOAD PUSH1 0x1 PUSH1 0x1 PUSH1 0xA0 SHL SUB NOT AND PUSH1 0x1 PUSH1 0x1 PUSH1 0xA0 SHL SUB SWAP1 SWAP2 AND OR DUP3 SSTORE PUSH1 0x20 SWAP1 SWAP3 ADD SWAP2 PUSH1 0x1 SWAP1 SWAP2 ADD SWAP1 PUSH2 0xC19 JUMP JUMPDEST POP PUSH2 0xC5A SWAP3 SWAP2 POP PUSH2 0xCF2 JUMP JUMPDEST POP SWAP1 JUMP JUMPDEST DUP3 DUP1 SLOAD DUP3 DUP3 SSTORE SWAP1 PUSH1 0x0 MSTORE PUSH1 0x20 PUSH1 0x0 KECCAK256 SWAP1 DUP2 ADD SWAP3 DUP3 ISZERO PUSH2 0xC4E JUMPI SWAP2 PUSH1 0x20 MUL DUP3 ADD JUMPDEST DUP3 DUP2 GT ISZERO PUSH2 0xC4E JUMPI DUP3 MLOAD DUP3 SSTORE SWAP2 PUSH1 0x20 ADD SWAP2 SWAP1 PUSH1 0x1 ADD SWAP1 PUSH2 0xC7E JUMP JUMPDEST DUP3 DUP1 SLOAD DUP3 DUP3 SSTORE SWAP1 PUSH1 0x0 MSTORE PUSH1 0x20 PUSH1 0x0 KECCAK256 SWAP1 DUP2 ADD SWAP3 DUP3 ISZERO PUSH2 0xCE6 JUMPI SWAP2 PUSH1 0x20 MUL DUP3 ADD JUMPDEST DUP3 DUP2 GT ISZERO PUSH2 0xCE6 JUMPI DUP3 MLOAD DUP1 MLOAD PUSH2 0xCD6 SWAP2 DUP5 SWAP2 PUSH1 0x20 SWAP1 SWAP2 ADD SWAP1 PUSH2 0xC5E JUMP JUMPDEST POP SWAP2 PUSH1 0x20 ADD SWAP2 SWAP1 PUSH1 0x1 ADD SWAP1 PUSH2 0xCB9 JUMP JUMPDEST POP PUSH2 0xC5A SWAP3 SWAP2 POP PUSH2 0xD07 JUMP JUMPDEST JUMPDEST DUP1 DUP3 GT ISZERO PUSH2 0xC5A JUMPI PUSH1 0x0 DUP2 SSTORE PUSH1 0x1 ADD PUSH2 0xCF3 JUMP JUMPDEST DUP1 DUP3 GT ISZERO PUSH2 0xC5A JUMPI PUSH1 0x0 PUSH2 0xD1B DUP3 DUP3 PUSH2 0xD24 JUMP JUMPDEST POP PUSH1 0x1 ADD PUSH2 0xD07 JUMP JUMPDEST POP DUP1 SLOAD PUSH1 0x0 DUP3 SSTORE SWAP1 PUSH1 0x0 MSTORE PUSH1 0x20 PUSH1 0x0 KECCAK256 SWAP1 DUP2 ADD SWAP1 PUSH2 0xD42 SWAP2 SWAP1 PUSH2 0xCF2 JUMP JUMPDEST POP JUMP JUMPDEST PUSH1 0x1 PUSH1 0x1 PUSH1 0xA0 SHL SUB DUP2 AND DUP2 EQ PUSH2 0xD42 JUMPI PUSH1 0x0 DUP1 REVERT JUMPDEST DUP1 CALLDATALOAD PUSH2 0xD65 DUP2 PUSH2 0xD45 JUMP JUMPDEST SWAP2 SWAP1 POP JUMP JUMPDEST PUSH1 0x0 DUP1 PUSH1 0x40 DUP4 DUP6 SUB SLT ISZERO PUSH2 0xD7D JUMPI PUSH1 0x0 DUP1 REVERT JUMPDEST DUP3 CALLDATALOAD PUSH2 0xD88 DUP2 PUSH2 0xD45 JUMP JUMPDEST SWAP2 POP PUSH1 0x20 DUP4 ADD CALLDATALOAD PUSH2 0xD98 DUP2 PUSH2 0xD45 JUMP JUMPDEST DUP1 SWAP2 POP POP SWAP3 POP SWAP3 SWAP1 POP JUMP JUMPDEST PUSH1 0x0 DUP1 PUSH1 0x40 DUP4 DUP6 SUB SLT ISZERO PUSH2 0xDB6 JUMPI PUSH1 0x0 DUP1 REVERT JUMPDEST DUP3 CALLDATALOAD PUSH2 0xDC1 DUP2 PUSH2 0xD45 JUMP JUMPDEST SWAP5 PUSH1 0x20 SWAP4 SWAP1 SWAP4 ADD CALLDATALOAD SWAP4 POP POP POP JUMP JUMPDEST PUSH4 0x4E487B71 PUSH1 0xE0 SHL PUSH1 0x0 MSTORE PUSH1 0x41 PUSH1 0x4 MSTORE PUSH1 0x24 PUSH1 0x0 REVERT JUMPDEST PUSH1 0x40 MLOAD PUSH1 0x1F DUP3 ADD PUSH1 0x1F NOT AND DUP2 ADD PUSH8 0xFFFFFFFFFFFFFFFF DUP2 GT DUP3 DUP3 LT OR ISZERO PUSH2 0xE0E JUMPI PUSH2 0xE0E PUSH2 0xDCF JUMP JUMPDEST PUSH1 0x40 MSTORE SWAP2 SWAP1 POP JUMP JUMPDEST PUSH1 0x0 PUSH8 0xFFFFFFFFFFFFFFFF DUP3 GT ISZERO PUSH2 0xE30 JUMPI PUSH2 0xE30 PUSH2 0xDCF JUMP JUMPDEST POP PUSH1 0x5 SHL PUSH1 0x20 ADD SWAP1 JUMP JUMPDEST PUSH1 0x0 DUP3 PUSH1 0x1F DUP4 ADD SLT PUSH2 0xE4B JUMPI PUSH1 0x0 DUP1 REVERT JUMPDEST DUP2 CALLDATALOAD PUSH1 0x20 PUSH2 0xE60 PUSH2 0xE5B DUP4 PUSH2 0xE16 JUMP JUMPDEST PUSH2 0xDE5 JUMP JUMPDEST DUP3 DUP2 MSTORE PUSH1 0x5 SWAP3 SWAP1 SWAP3 SHL DUP5 ADD DUP2 ADD SWAP2 DUP2 DUP2 ADD SWAP1 DUP7 DUP5 GT ISZERO PUSH2 0xE7F JUMPI PUSH1 0x0 DUP1 REVERT JUMPDEST DUP3 DUP7 ADD JUMPDEST DUP5 DUP2 LT ISZERO PUSH2 0xEA3 JUMPI DUP1 CALLDATALOAD PUSH2 0xE96 DUP2 PUSH2 0xD45 JUMP JUMPDEST DUP4 MSTORE SWAP2 DUP4 ADD SWAP2 DUP4 ADD PUSH2 0xE83 JUMP JUMPDEST POP SWAP7 SWAP6 POP POP POP POP POP POP JUMP JUMPDEST PUSH1 0x0 DUP3 PUSH1 0x1F DUP4 ADD SLT PUSH2 0xEBF JUMPI PUSH1 0x0 DUP1 REVERT JUMPDEST DUP2 CALLDATALOAD PUSH1 0x20 PUSH2 0xECF PUSH2 0xE5B DUP4 PUSH2 0xE16 JUMP JUMPDEST DUP3 DUP2 MSTORE PUSH1 0x5 SWAP3 SWAP1 SWAP3 SHL DUP5 ADD DUP2 ADD SWAP2 DUP2 DUP2 ADD SWAP1 DUP7 DUP5 GT ISZERO PUSH2 0xEEE JUMPI PUSH1 0x0 DUP1 REVERT JUMPDEST DUP3 DUP7 ADD JUMPDEST DUP5 DUP2 LT ISZERO PUSH2 0xEA3 JUMPI DUP1 CALLDATALOAD DUP4 MSTORE SWAP2 DUP4 ADD SWAP2 DUP4 ADD PUSH2 0xEF2 JUMP JUMPDEST PUSH1 0x0 DUP3 PUSH1 0x1F DUP4 ADD SLT PUSH2 0xF1A JUMPI PUSH1 0x0 DUP1 REVERT JUMPDEST DUP2 CALLDATALOAD PUSH1 0x20 PUSH2 0xF2A PUSH2 0xE5B DUP4 PUSH2 0xE16 JUMP JUMPDEST DUP3 DUP2 MSTORE PUSH1 0x5 SWAP3 SWAP1 SWAP3 SHL DUP5 ADD DUP2 ADD SWAP2 DUP2 DUP2 ADD SWAP1 DUP7 DUP5 GT ISZERO PUSH2 0xF49 JUMPI PUSH1 0x0 DUP1 REVERT JUMPDEST DUP3 DUP7 ADD JUMPDEST DUP5 DUP2 LT ISZERO PUSH2 0xEA3 JUMPI DUP1 CALLDATALOAD PUSH8 0xFFFFFFFFFFFFFFFF DUP2 GT ISZERO PUSH2 0xF6D JUMPI PUSH1 0x0 DUP1 DUP2 REVERT JUMPDEST PUSH2 0xF7B DUP10 DUP7 DUP4 DUP12 ADD ADD PUSH2 0xEAE JUMP JUMPDEST DUP5 MSTORE POP SWAP2 DUP4 ADD SWAP2 DUP4 ADD PUSH2 0xF4D JUMP JUMPDEST PUSH1 0x0 DUP1 PUSH1 0x0 DUP1 PUSH1 0x0 DUP1 PUSH1 0x0 DUP1 PUSH1 0x0 DUP1 PUSH2 0x140 DUP12 DUP14 SUB SLT ISZERO PUSH2 0xFA9 JUMPI PUSH1 0x0 DUP1 REVERT JUMPDEST DUP11 CALLDATALOAD PUSH8 0xFFFFFFFFFFFFFFFF DUP1 DUP3 GT ISZERO PUSH2 0xFC1 JUMPI PUSH1 0x0 DUP1 REVERT JUMPDEST PUSH2 0xFCD DUP15 DUP4 DUP16 ADD PUSH2 0xE3A JUMP JUMPDEST SWAP12 POP PUSH1 0x20 DUP14 ADD CALLDATALOAD SWAP2 POP DUP1 DUP3 GT ISZERO PUSH2 0xFE3 JUMPI PUSH1 0x0 DUP1 REVERT JUMPDEST PUSH2 0xFEF DUP15 DUP4 DUP16 ADD PUSH2 0xEAE JUMP JUMPDEST SWAP11 POP PUSH1 0x40 DUP14 ADD CALLDATALOAD SWAP2 POP DUP1 DUP3 GT ISZERO PUSH2 0x1005 JUMPI PUSH1 0x0 DUP1 REVERT JUMPDEST PUSH2 0x1011 DUP15 DUP4 DUP16 ADD PUSH2 0xE3A JUMP JUMPDEST SWAP10 POP PUSH1 0x60 DUP14 ADD CALLDATALOAD SWAP2 POP DUP1 DUP3 GT ISZERO PUSH2 0x1027 JUMPI PUSH1 0x0 DUP1 REVERT JUMPDEST PUSH2 0x1033 DUP15 DUP4 DUP16 ADD PUSH2 0xF09 JUMP JUMPDEST SWAP9 POP PUSH1 0x80 DUP14 ADD CALLDATALOAD SWAP2 POP DUP1 DUP3 GT ISZERO PUSH2 0x1049 JUMPI PUSH1 0x0 DUP1 REVERT JUMPDEST PUSH2 0x1055 DUP15 DUP4 DUP16 ADD PUSH2 0xE3A JUMP JUMPDEST SWAP8 POP PUSH1 0xA0 DUP14 ADD CALLDATALOAD SWAP2 POP DUP1 DUP3 GT ISZERO PUSH2 0x106B JUMPI PUSH1 0x0 DUP1 REVERT JUMPDEST PUSH2 0x1077 DUP15 DUP4 DUP16 ADD PUSH2 0xEAE JUMP JUMPDEST SWAP7 POP PUSH1 0xC0 DUP14 ADD CALLDATALOAD SWAP2 POP DUP1 DUP3 GT ISZERO PUSH2 0x108D JUMPI PUSH1 0x0 DUP1 REVERT JUMPDEST PUSH2 0x1099 DUP15 DUP4 DUP16 ADD PUSH2 0xE3A JUMP JUMPDEST SWAP6 POP PUSH1 0xE0 DUP14 ADD CALLDATALOAD SWAP2 POP DUP1 DUP3 GT ISZERO PUSH2 0x10AF JUMPI PUSH1 0x0 DUP1 REVERT JUMPDEST POP PUSH2 0x10BC DUP14 DUP3 DUP15 ADD PUSH2 0xF09 JUMP JUMPDEST SWAP4 POP POP PUSH2 0x10CC PUSH2 0x100 DUP13 ADD PUSH2 0xD5A JUMP JUMPDEST SWAP2 POP PUSH2 0x120 DUP12 ADD CALLDATALOAD SWAP1 POP SWAP3 SWAP6 SWAP9 SWAP12 SWAP2 SWAP5 SWAP8 SWAP11 POP SWAP3 SWAP6 SWAP9 POP JUMP JUMPDEST PUSH1 0x0 PUSH1 0x20 DUP3 DUP5 SUB SLT ISZERO PUSH2 0x10F7 JUMPI PUSH1 0x0 DUP1 REVERT JUMPDEST DUP2 CALLDATALOAD PUSH2 0x1102 DUP2 PUSH2 0xD45 JUMP JUMPDEST SWAP4 SWAP3 POP POP POP JUMP JUMPDEST PUSH4 0x4E487B71 PUSH1 0xE0 SHL PUSH1 0x0 MSTORE PUSH1 0x32 PUSH1 0x4 MSTORE PUSH1 0x24 PUSH1 0x0 REVERT JUMPDEST PUSH1 0x1 PUSH1 0x1 PUSH1 0xA0 SHL SUB SWAP4 DUP5 AND DUP2 MSTORE SWAP2 SWAP1 SWAP3 AND PUSH1 0x20 DUP3 ADD MSTORE PUSH1 0x40 DUP2 ADD SWAP2 SWAP1 SWAP2 MSTORE PUSH1 0x60 ADD SWAP1 JUMP JUMPDEST PUSH1 0x0 PUSH1 0x20 DUP3 DUP5 SUB SLT ISZERO PUSH2 0x1155 JUMPI PUSH1 0x0 DUP1 REVERT JUMPDEST DUP2 MLOAD DUP1 ISZERO ISZERO DUP2 EQ PUSH2 0x1102 JUMPI PUSH1 0x0 DUP1 REVERT JUMPDEST PUSH1 0x0 PUSH1 0x0 NOT DUP3 EQ ISZERO PUSH2 0x1187 JUMPI PUSH4 0x4E487B71 PUSH1 0xE0 SHL PUSH1 0x0 MSTORE PUSH1 0x11 PUSH1 0x4 MSTORE PUSH1 0x24 PUSH1 0x0 REVERT JUMPDEST POP PUSH1 0x1 ADD SWAP1 JUMP JUMPDEST PUSH1 0x0 DUP2 MLOAD PUSH1 0x20 DUP1 DUP5 ADD PUSH1 0x0 JUMPDEST DUP4 DUP2 LT ISZERO PUSH2 0x11BF JUMPI DUP2 MLOAD PUSH1 0x1 PUSH1 0x1 PUSH1 0xA0 SHL SUB AND DUP8 MSTORE SWAP6 DUP3 ADD SWAP6 SWAP1 DUP3 ADD SWAP1 PUSH1 0x1 ADD PUSH2 0x119A JUMP JUMPDEST POP SWAP5 SWAP6 SWAP5 POP POP POP POP POP JUMP JUMPDEST PUSH1 0x0 DUP2 MLOAD PUSH1 0x20 DUP1 DUP5 ADD PUSH1 0x0 JUMPDEST DUP4 DUP2 LT ISZERO PUSH2 0x11BF JUMPI DUP2 MLOAD DUP8 MSTORE SWAP6 DUP3 ADD SWAP6 SWAP1 DUP3 ADD SWAP1 PUSH1 0x1 ADD PUSH2 0x11D6 JUMP JUMPDEST PUSH1 0x0 PUSH2 0x1219 PUSH2 0x1213 PUSH2 0x120D PUSH2 0x1207 DUP6 DUP13 PUSH2 0x118E JUMP JUMPDEST DUP11 PUSH2 0x11CA JUMP JUMPDEST DUP9 PUSH2 0x118E JUMP JUMPDEST DUP7 PUSH2 0x11CA JUMP JUMPDEST PUSH12 0xFFFFFFFFFFFFFFFFFFFFFFFF NOT PUSH1 0x60 SWAP6 DUP7 SHL DUP2 AND DUP3 MSTORE SWAP4 SWAP1 SWAP5 SHL SWAP1 SWAP3 AND PUSH1 0x14 DUP5 ADD MSTORE POP POP PUSH1 0x28 ADD SWAP5 SWAP4 POP POP POP POP JUMP INVALID LOG2 PUSH5 0x6970667358 0x22 SLT KECCAK256 0xDB CALLVALUE DUP12 EQ 0xB0 0xCE DUP7 0x2A 0xDF 0x4E 0xB8 SMOD 0x2C 0xC6 SWAP10 BLOCKHASH 0xE5 0xD MUL 0xB8 CREATE 0xCC 0xE3 0x5C 0x4F 0xC 0x4A ADDMOD 0x2A SELFBALANCE 0xEE DUP11 PUSH5 0x736F6C6343 STOP ADDMOD SIGNEXTEND STOP CALLER "
		},
		"gasEstimates": {
			"creation": {
				"codeDepositCost": "947000",
				"executionCost": "981",
				"totalCost": "947981"
			},
			"external": {
				"cancelExchange(address)": "26868",
				"completeExchange(address,bytes32)": "infinite",
				"exchangeData(address,address)": "infinite",
				"initializeExchange(address[],uint256[],address[],uint256[][],address[],uint256[],address[],uint256[][],address,uint256)": "infinite"
			}
		},
		"methodIdentifiers": {
			"cancelExchange(address)": "bf9e4ef3",
			"completeExchange(address,bytes32)": "5c320a72",
			"exchangeData(address,address)": "1b2e0716",
			"initializeExchange(address[],uint256[],address[],uint256[][],address[],uint256[],address[],uint256[][],address,uint256)": "68d134c3"
		}
	},
	"abi": [
		{
			"anonymous": false,
			"inputs": [
				{
					"indexed": false,
					"internalType": "bytes32",
					"name": "",
					"type": "bytes32"
				}
			],
			"name": "initializedExchange",
			"type": "event"
		},
		{
			"inputs": [
				{
					"internalType": "address",
					"name": "B",
					"type": "address"
				}
			],
			"name": "cancelExchange",
			"outputs": [],
			"stateMutability": "nonpayable",
			"type": "function"
		},
		{
			"inputs": [
				{
					"internalType": "address",
					"name": "A",
					"type": "address"
				},
				{
					"internalType": "bytes32",
					"name": "key",
					"type": "bytes32"
				}
			],
			"name": "completeExchange",
			"outputs": [],
			"stateMutability": "nonpayable",
			"type": "function"
		},
		{
			"inputs": [
				{
					"internalType": "address",
					"name": "",
					"type": "address"
				},
				{
					"internalType": "address",
					"name": "",
					"type": "address"
				}
			],
			"name": "exchangeData",
			"outputs": [
				{
					"internalType": "address",
					"name": "A",
					"type": "address"
				},
				{
					"internalType": "address",
					"name": "B",
					"type": "address"
				},
				{
					"internalType": "bool",
					"name": "isAgreedByA",
					"type": "bool"
				},
				{
					"internalType": "bool",
					"name": "isComplete",
					"type": "bool"
				},
				{
					"internalType": "bytes32",
					"name": "key",
					"type": "bytes32"
				},
				{
					"internalType": "uint256",
					"name": "expiration",
					"type": "uint256"
				}
			],
			"stateMutability": "view",
			"type": "function"
		},
		{
			"inputs": [
				{
					"internalType": "contract ERC20[]",
					"name": "erc20sA",
					"type": "address[]"
				},
				{
					"internalType": "uint256[]",
					"name": "amountsA",
					"type": "uint256[]"
				},
				{
					"internalType": "contract ERC721[]",
					"name": "NFTA",
					"type": "address[]"
				},
				{
					"internalType": "uint256[][]",
					"name": "idA",
					"type": "uint256[][]"
				},
				{
					"internalType": "contract ERC20[]",
					"name": "erc20sB",
					"type": "address[]"
				},
				{
					"internalType": "uint256[]",
					"name": "amountsB",
					"type": "uint256[]"
				},
				{
					"internalType": "contract ERC721[]",
					"name": "NFTB",
					"type": "address[]"
				},
				{
					"internalType": "uint256[][]",
					"name": "idB",
					"type": "uint256[][]"
				},
				{
					"internalType": "address",
					"name": "B",
					"type": "address"
				},
				{
					"internalType": "uint256",
					"name": "expiration",
					"type": "uint256"
				}
			],
			"name": "initializeExchange",
			"outputs": [
				{
					"internalType": "bytes32",
					"name": "",
					"type": "bytes32"
				}
			],
			"stateMutability": "nonpayable",
			"type": "function"
		}
	]
}